{"abi":[{"type":"constructor","inputs":[{"name":"_challengeFinality","type":"uint256","internalType":"uint256"}],"stateMutability":"nonpayable"},{"type":"function","name":"LEAF_SIZE","inputs":[],"outputs":[{"name":"","type":"uint256","internalType":"uint256"}],"stateMutability":"view"},{"type":"function","name":"MAX_ROOT_SIZE","inputs":[],"outputs":[{"name":"","type":"uint256","internalType":"uint256"}],"stateMutability":"view"},{"type":"function","name":"addRoots","inputs":[{"name":"setId","type":"uint256","internalType":"uint256"},{"name":"rootData","type":"tuple[]","internalType":"struct PDPService.RootData[]","components":[{"name":"root","type":"tuple","internalType":"struct Cids.Cid","components":[{"name":"data","type":"bytes","internalType":"bytes"}]},{"name":"rawSize","type":"uint256","internalType":"uint256"}]}],"outputs":[{"name":"","type":"uint256","internalType":"uint256"}],"stateMutability":"nonpayable"},{"type":"function","name":"claimProofSetOwnership","inputs":[{"name":"setId","type":"uint256","internalType":"uint256"}],"outputs":[],"stateMutability":"nonpayable"},{"type":"function","name":"createProofSet","inputs":[{"name":"recordKeeper","type":"address","internalType":"address"}],"outputs":[{"name":"","type":"uint256","internalType":"uint256"}],"stateMutability":"nonpayable"},{"type":"function","name":"deleteProofSet","inputs":[{"name":"setId","type":"uint256","internalType":"uint256"}],"outputs":[],"stateMutability":"nonpayable"},{"type":"function","name":"findRootIds","inputs":[{"name":"setId","type":"uint256","internalType":"uint256"},{"name":"leafIndexs","type":"uint256[]","internalType":"uint256[]"}],"outputs":[{"name":"","type":"tuple[]","internalType":"struct PDPService.RootIdAndOffset[]","components":[{"name":"rootId","type":"uint256","internalType":"uint256"},{"name":"offset","type":"uint256","internalType":"uint256"}]}],"stateMutability":"view"},{"type":"function","name":"getChallengeFinality","inputs":[],"outputs":[{"name":"","type":"uint256","internalType":"uint256"}],"stateMutability":"view"},{"type":"function","name":"getNextChallengeEpoch","inputs":[{"name":"setId","type":"uint256","internalType":"uint256"}],"outputs":[{"name":"","type":"uint256","internalType":"uint256"}],"stateMutability":"view"},{"type":"function","name":"getNextProofSetId","inputs":[],"outputs":[{"name":"","type":"uint64","internalType":"uint64"}],"stateMutability":"view"},{"type":"function","name":"getNextRootId","inputs":[{"name":"setId","type":"uint256","internalType":"uint256"}],"outputs":[{"name":"","type":"uint256","internalType":"uint256"}],"stateMutability":"view"},{"type":"function","name":"getProofSetLeafCount","inputs":[{"name":"setId","type":"uint256","internalType":"uint256"}],"outputs":[{"name":"","type":"uint256","internalType":"uint256"}],"stateMutability":"view"},{"type":"function","name":"getProofSetOwner","inputs":[{"name":"setId","type":"uint256","internalType":"uint256"}],"outputs":[{"name":"","type":"address","internalType":"address"},{"name":"","type":"address","internalType":"address"}],"stateMutability":"view"},{"type":"function","name":"getRootCid","inputs":[{"name":"setId","type":"uint256","internalType":"uint256"},{"name":"rootId","type":"uint256","internalType":"uint256"}],"outputs":[{"name":"","type":"tuple","internalType":"struct Cids.Cid","components":[{"name":"data","type":"bytes","internalType":"bytes"}]}],"stateMutability":"view"},{"type":"function","name":"getRootLeafCount","inputs":[{"name":"setId","type":"uint256","internalType":"uint256"},{"name":"rootId","type":"uint256","internalType":"uint256"}],"outputs":[{"name":"","type":"uint256","internalType":"uint256"}],"stateMutability":"view"},{"type":"function","name":"proofSetLive","inputs":[{"name":"setId","type":"uint256","internalType":"uint256"}],"outputs":[{"name":"","type":"bool","internalType":"bool"}],"stateMutability":"view"},{"type":"function","name":"proposeProofSetOwner","inputs":[{"name":"setId","type":"uint256","internalType":"uint256"},{"name":"newOwner","type":"address","internalType":"address"}],"outputs":[],"stateMutability":"nonpayable"},{"type":"function","name":"provePossession","inputs":[{"name":"setId","type":"uint256","internalType":"uint256"},{"name":"proofs","type":"tuple[]","internalType":"struct PDPService.Proof[]","components":[{"name":"leaf","type":"bytes32","internalType":"bytes32"},{"name":"proof","type":"bytes32[]","internalType":"bytes32[]"}]}],"outputs":[],"stateMutability":"nonpayable"},{"type":"function","name":"removeRoots","inputs":[{"name":"setId","type":"uint256","internalType":"uint256"},{"name":"rootIds","type":"uint256[]","internalType":"uint256[]"}],"outputs":[{"name":"","type":"uint256","internalType":"uint256"}],"stateMutability":"nonpayable"},{"type":"function","name":"rootLive","inputs":[{"name":"setId","type":"uint256","internalType":"uint256"},{"name":"rootId","type":"uint256","internalType":"uint256"}],"outputs":[{"name":"","type":"bool","internalType":"bool"}],"stateMutability":"view"},{"type":"error","name":"IndexedError","inputs":[{"name":"idx","type":"uint256","internalType":"uint256"},{"name":"msg","type":"string","internalType":"string"}]}],"bytecode":{"object":"0x608060405234801561001057600080fd5b5060405161238538038061238583398101604081905261002f91610037565b600055610050565b60006020828403121561004957600080fd5b5051919050565b6123268061005f6000396000f3fe608060405234801561001057600080fd5b506004361061012c5760003560e01c80638ea417e5116100ad578063d6dadec811610071578063d6dadec8146102a9578063ee3dac65146102bc578063f58f952b146102cf578063f5cac1ba146102e2578063f83758fe146102f557600080fd5b80638ea417e51461024d5780639153e64b14610268578063969843381461027b578063c0e159491461028e578063d49245c11461029657600080fd5b80633f84135f116100f45780633f84135f146101bc5780634726075b146101cf57806347331050146102025780636ba4608f146102255780636cb55c161461023857600080fd5b80630528a55b1461013157806316e2bcd51461015a578063316bf10e1461017657806332a87252146101895780633b7ae9131461019c575b600080fd5b61014461013f366004611c65565b6102fd565b6040516101519190611cb0565b60405180910390f35b610168660400000000000081565b604051908152602001610151565b610168610184366004611c65565b6103f3565b610168610197366004611c65565b61056e565b6101af6101aa366004611cff565b610752565b6040516101519190611d67565b6101686101ca366004611d82565b610845565b6101e26101dd366004611d82565b61087f565b604080516001600160a01b03938416815292909116602083015201610151565b610215610210366004611cff565b6108d5565b6040519015158152602001610151565b610168610233366004611d82565b610920565b61024b610246366004611db7565b61095a565b005b6001546040516001600160401b039091168152602001610151565b610168610276366004611cff565b610a63565b610168610289366004611de3565b610aa8565b610168602081565b6101686102a4366004611d82565b610b69565b61024b6102b7366004611d82565b610ba3565b61024b6102ca366004611d82565b610cdd565b61024b6102dd366004611c65565b610db1565b6102156102f0366004611d82565b61109b565b600054610168565b60008381526005602052604081205460609190610319906110d1565b61032590610100611e14565b90506000836001600160401b0381111561034157610341611e27565b60405190808252806020026020018201604052801561038657816020015b604080518082019091526000808252602082015281526020019060019003908161035f5790505b50905060005b848110156103e7576103b7878787848181106103aa576103aa611e3d565b90506020020135856111c9565b8282815181106103c9576103c9611e3d565b602002602001018190525080806103df90611e53565b91505061038c565b509150505b9392505050565b6000838152600960205260408120546001600160a01b0316331461045e5760405162461bcd60e51b815260206004820152601f60248201527f4f6e6c7920746865206f776e65722063616e2072656d6f766520726f6f74730060448201526064015b60405180910390fd5b6104678461109b565b6104835760405162461bcd60e51b815260040161045590611e6c565b6000805b838110156104cf576104b1868686848181106104a5576104a5611e3d565b905060200201356113b1565b6104bb9083611e98565b9150806104c781611e53565b915050610487565b50600085815260066020526040812080548392906104ee908490611e14565b90915550506000858152600660205260408120549003610518576000858152600760205260408120555b600081858560405160200161052f93929190611eab565b60408051601f198184030181529181526000888152600860205220549091506105659087906001600160a01b0316600384611419565b50949350505050565b60006105798461109b565b6105955760405162461bcd60e51b815260040161045590611e6c565b816105e25760405162461bcd60e51b815260206004820152601a60248201527f4d75737420616464206174206c65617374206f6e6520726f6f740000000000006044820152606401610455565b6000848152600960205260409020546001600160a01b031633146106485760405162461bcd60e51b815260206004820152601c60248201527f4f6e6c7920746865206f776e65722063616e2061646420726f6f7473000000006044820152606401610455565b60008481526007602090815260408083205460059092528220549015915b848110156106e1576106ce878288888581811061068557610685611e3d565b90506020028101906106979190611eec565b6106a19080611f0c565b8989868181106106b3576106b3611e3d565b90506020028101906106c59190611eec565b602001356114cf565b50806106d981611e53565b915050610666565b508115610705576000546106f59043611e98565b6000878152600760205260409020555b600081868660405160200161071c93929190611f22565b60408051601f198184030181529181526000898152600860205220549091506103e79088906001600160a01b0316600284611419565b60408051602081019091526060815261076a8361109b565b6107865760405162461bcd60e51b815260040161045590611e6c565b600083815260026020908152604080832085845282529182902082519182019092528154909190829082906107ba9061201f565b80601f01602080910402602001604051908101604052809291908181526020018280546107e69061201f565b80156108335780601f1061080857610100808354040283529160200191610833565b820191906000526020600020905b81548152906001019060200180831161081657829003601f168201915b50505050508152505090505b92915050565b60006108508261109b565b61086c5760405162461bcd60e51b815260040161045590611e6c565b5060009081526006602052604090205490565b60008061088b8361109b565b6108a75760405162461bcd60e51b815260040161045590611e6c565b5050600090815260096020908152604080832054600a909252909120546001600160a01b0391821692911690565b60006108e08361109b565b80156108f9575060008381526005602052604090205482105b80156103ec5750506000918252600360209081526040808420928452919052902054151590565b600061092b8261109b565b6109475760405162461bcd60e51b815260040161045590611e6c565b5060009081526007602052604090205490565b6109638261109b565b61097f5760405162461bcd60e51b815260040161045590611e6c565b6000828152600960205260409020546001600160a01b03163381146109fd5760405162461bcd60e51b815260206004820152602e60248201527f4f6e6c79207468652063757272656e74206f776e65722063616e2070726f706f60448201526d39b29030903732bb9037bbb732b960911b6064820152608401610455565b816001600160a01b0316816001600160a01b031603610a365750506000908152600a6020526040902080546001600160a01b0319169055565b6000838152600a6020526040902080546001600160a01b0319166001600160a01b0384161790555b505050565b6000610a6e8361109b565b610a8a5760405162461bcd60e51b815260040161045590611e6c565b50600091825260036020908152604080842092845291905290205490565b6001805460009182916001600160401b03169082610ac583612059565b82546101009290920a6001600160401b0381810219909316918316021790915516600081815260066020908152604080832083905560078252808320839055600982528083208054336001600160a01b031991821681179092556008845282852080549091166001600160a01b038a161790558151928301529293509091016040516020818303038152906040529050610b628285600184611419565b5092915050565b6000610b748261109b565b610b905760405162461bcd60e51b815260040161045590611e6c565b5060009081526005602052604090205490565b6001546001600160401b03168110610bfd5760405162461bcd60e51b815260206004820152601a60248201527f70726f6f6620736574206964206f7574206f6620626f756e64730000000000006044820152606401610455565b6000818152600960205260409020546001600160a01b03163314610c6f5760405162461bcd60e51b8152602060048201526024808201527f4f6e6c7920746865206f776e65722063616e2064656c6574652070726f6f66206044820152637365747360e01b6064820152608401610455565b60008181526006602090815260408083208054908490556009835281842080546001600160a01b031916905560078352818420849055815180840182905282518082038501815290830183528585526008909352922054610a5e9084906001600160a01b0316600584611419565b610ce68161109b565b610d025760405162461bcd60e51b815260040161045590611e6c565b6000818152600a60205260409020546001600160a01b03163314610d7c5760405162461bcd60e51b815260206004820152602b60248201527f4f6e6c79207468652070726f706f736564206f776e65722063616e20636c616960448201526a06d206f776e6572736869760ac1b6064820152608401610455565b600090815260096020908152604080832080546001600160a01b03199081163317909155600a90925290912080549091169055565b60008381526007602052604090205443811115610e025760405162461bcd60e51b815260206004820152600f60248201526e383932b6b0ba3ab93290383937b7b360891b6044820152606401610455565b81610e3d5760405162461bcd60e51b815260206004820152600b60248201526a32b6b83a3c90383937b7b360a91b6044820152606401610455565b806000610e4986610845565b60008781526005602052604081205491925090610e65906110d1565b610e7190610100611e14565b905060005b6001600160401b0381168611156110205760408051602081018690529081018990526001600160c01b031960c083901b1660608201526000906068016040516020818303038152906040529050600084828051906020012060001c610edb9190612095565b90506000610eea8b83876111c9565b90506000610f04610eff8d8460000151610752565b611698565b90506000610fc28c8c886001600160401b0316818110610f2657610f26611e3d565b9050602002810190610f389190611eec565b610f469060208101906120a9565b80806020026020016040519081016040528093929190818152602001838360200280828437600081840152601f19601f82011690508083019250505050505050838e8e8a6001600160401b0316818110610fa257610fa2611e3d565b9050602002810190610fb49190611eec565b600001358660200151611791565b9050806110085760405162461bcd60e51b815260206004820152601460248201527370726f6f6620646964206e6f742076657269667960601b6044820152606401610455565b5050505050808061101890612059565b915050610e76565b5060005461102e9043611e98565b60008881526007602090815260408083209390935560068152828220548351918201529182018590529060600160408051601f1981840301815291815260008a8152600860205220549091506110919089906001600160a01b0316600484611419565b5050505050505050565b6001546000906001600160401b03168210801561083f5750506000908152600960205260409020546001600160a01b0316151590565b6000610100608083901c80156110f2576110ec608083611e14565b91508093505b50604083901c801561110f57611109604083611e14565b91508093505b50602083901c801561112c57611126602083611e14565b91508093505b50601083901c801561114957611143601083611e14565b91508093505b50600883901c801561116657611160600883611e14565b91508093505b50600483901c80156111835761117d600483611e14565b91508093505b50600283901c80156111a05761119a600283611e14565b91508093505b50600183901c80156111bf576111b7600283611e14565b949350505050565b6111b78483611e14565b6040805180820190915260008082526020820152600084815260066020526040902054831061123a5760405162461bcd60e51b815260206004820152601860248201527f4c65616620696e646578206f7574206f6620626f756e647300000000000000006044820152606401610455565b6000611249600180851b611e14565b9050600080845b801561132557600088815260056020526040902054841061128b57611276600182611e14565b611284906001901b85611e14565b9350611313565b60008881526004602090815260408083208784529091529020546112af9084611e98565b91508682116112f75760008881526004602090815260408083208784529091529020546112dc9084611e98565b92506112e9600182611e14565b611284906001901b85611e98565b611302600182611e14565b611310906001901b85611e14565b93505b8061131d816120f2565b915050611250565b50600087815260046020908152604080832086845290915290205461134a9083611e98565b905085811161138757604051806040016040528084600161136b9190611e98565b815260200161137a8389611e14565b81525093505050506103ec565b604051806040016040528084815260200183886113a49190611e14565b9052979650505050505050565b60008281526003602090815260408083208484529091528120546113d68484836117a9565b600084815260036020908152604080832086845282528083208390558683526002825280832086845290915281209061140f8282611bc4565b5090949350505050565b6001600160a01b03831661146f5760405162461bcd60e51b815260206004820152601960248201527f5265636f7264206b6565706572206d75737420626520736574000000000000006044820152606401610455565b6040516307e4f60d60e11b81526001600160a01b03841690630fc9ec1a906114a1908790439087908790600401612109565b600060405180830381600087803b1580156114bb57600080fd5b505af1158015611091573d6000803e3d6000fd5b60006114dc602083612095565b15611533578360405163c7b67cf360e01b8152600401610455918152604060208201819052601d908201527f53697a65206d7573742062652061206d756c7469706c65206f66203332000000606082015260800190565b8160000361158d578360405163c7b67cf360e01b8152600401610455918152604060208201819052601b908201527f53697a65206d7573742062652067726561746572207468616e20300000000000606082015260800190565b66040000000000008211156115ed578360405163c7b67cf360e01b815260040161045591815260406020808301829052908201527f526f6f742073697a65206d757374206265206c657373207468616e20325e3530606082015260800190565b60006115fa60208461215f565b600087815260056020526040812080549293509091908261161a83611e53565b91905055905061162b878383611854565b60008781526002602090815260408083208484529091529020859061165082826121c1565b505060008781526003602090815260408083208484528252808320859055898352600690915281208054849290611688908490611e98565b9091555090979650505050505050565b6000602082600001515110156116e85760405162461bcd60e51b815260206004820152601560248201527410da590819185d18481a5cc81d1bdbc81cda1bdc9d605a1b6044820152606401610455565b60408051602080825281830190925260009160208201818036833701905050905060005b60208110156117875783518051829061172790602090611e14565b6117319190611e98565b8151811061174157611741611e3d565b602001015160f81c60f81b82828151811061175e5761175e611e3d565b60200101906001600160f81b031916908160001a9053508061177f81611e53565b91505061170c565b506103ec816122b0565b60008361179f8685856118df565b1495945050505050565b6000838152600560205260408120546117c1906110d1565b6117cd90610100611e14565b905060006117da8461195e565b90505b8181111580156117fa575060008581526005602052604090205484105b1561184d57600085815260046020908152604080832087845290915281208054859290611828908490611e14565b9091555061183b90506001821b85611e98565b93506118468461195e565b90506117dd565b5050505050565b8060006118608261195e565b90508360005b828110156118ba57600061187d6001831b86611e14565b60008981526004602090815260408083208484529091529020549091506118a49084611e98565b92505080806118b290611e53565b915050611866565b5060009586526004602090815260408088209588529490529290942091909155505050565b600082815b855181101561056557600086828151811061190157611901611e3d565b602002602001015190506002856119189190612095565b600003611930576119298382611973565b925061193d565b61193a8184611973565b92505b61194860028661215f565b945050808061195690611e53565b9150506118e4565b600061083f61196e836001611e98565b61197f565b60006103ec8383611b97565b60006001600160ff1b038211156119e35760405162461bcd60e51b815260206004820152602260248201527f496e7075742065786365656473206d6178696d756d20696e743235362076616c604482015261756560f01b6064820152608401610455565b61010060006119f1846122d4565b841690508015611a095781611a05816120f2565b9250505b6fffffffffffffffffffffffffffffffff811615611a2f57611a2c608083611e14565b91505b77ffffffffffffffff0000000000000000ffffffffffffffff811615611a5d57611a5a604083611e14565b91505b7bffffffff00000000ffffffff00000000ffffffff00000000ffffffff811615611a8f57611a8c602083611e14565b91505b7dffff0000ffff0000ffff0000ffff0000ffff0000ffff0000ffff0000ffff811615611ac357611ac0601083611e14565b91505b7eff00ff00ff00ff00ff00ff00ff00ff00ff00ff00ff00ff00ff00ff00ff00ff811615611af857611af5600883611e14565b91505b7f0f0f0f0f0f0f0f0f0f0f0f0f0f0f0f0f0f0f0f0f0f0f0f0f0f0f0f0f0f0f0f0f811615611b2e57611b2b600483611e14565b91505b7f3333333333333333333333333333333333333333333333333333333333333333811615611b6457611b61600283611e14565b91505b7f5555555555555555555555555555555555555555555555555555555555555555811615610b62576111b7600183611e14565b60008260005281602052602060006040600060025afa611bb657600080fd5b505060005160c01916919050565b508054611bd09061201f565b6000825580601f10611be0575050565b601f016020900490600052602060002090810190611bfe9190611c01565b50565b5b80821115611c165760008155600101611c02565b5090565b60008083601f840112611c2c57600080fd5b5081356001600160401b03811115611c4357600080fd5b6020830191508360208260051b8501011115611c5e57600080fd5b9250929050565b600080600060408486031215611c7a57600080fd5b8335925060208401356001600160401b03811115611c9757600080fd5b611ca386828701611c1a565b9497909650939450505050565b602080825282518282018190526000919060409081850190868401855b82811015611cf257815180518552860151868501529284019290850190600101611ccd565b5091979650505050505050565b60008060408385031215611d1257600080fd5b50508035926020909101359150565b6000815180845260005b81811015611d4757602081850181015186830182015201611d2b565b506000602082860101526020601f19601f83011685010191505092915050565b60208152600082516020808401526111b76040840182611d21565b600060208284031215611d9457600080fd5b5035919050565b80356001600160a01b0381168114611db257600080fd5b919050565b60008060408385031215611dca57600080fd5b82359150611dda60208401611d9b565b90509250929050565b600060208284031215611df557600080fd5b6103ec82611d9b565b634e487b7160e01b600052601160045260246000fd5b8181038181111561083f5761083f611dfe565b634e487b7160e01b600052604160045260246000fd5b634e487b7160e01b600052603260045260246000fd5b600060018201611e6557611e65611dfe565b5060010190565b60208082526012908201527150726f6f6620736574206e6f74206c69766560701b604082015260600190565b8082018082111561083f5761083f611dfe565b838152604060208201819052810182905260006001600160fb1b03831115611ed257600080fd5b8260051b8085606085013791909101606001949350505050565b60008235603e19833603018112611f0257600080fd5b9190910192915050565b60008235601e19833603018112611f0257600080fd5b600060408083018684526020828186015281868352606092508286019050828760051b8701018860005b8981101561200f57888303605f190184528135368c9003603e19018112611f7257600080fd5b8b018035601e193683900381018212611f8a57600080fd5b8282019150898652813581833603018112611fa457600080fd5b9091018781019150356001600160401b03811115611fc157600080fd5b803603821315611fd057600080fd5b878a870152808987015260808183828901376000878301820152928801358887015295870195601f01601f191690940101925090840190600101611f4c565b50909a9950505050505050505050565b600181811c9082168061203357607f821691505b60208210810361205357634e487b7160e01b600052602260045260246000fd5b50919050565b60006001600160401b0380831681810361207557612075611dfe565b6001019392505050565b634e487b7160e01b600052601260045260246000fd5b6000826120a4576120a461207f565b500690565b6000808335601e198436030181126120c057600080fd5b8301803591506001600160401b038211156120da57600080fd5b6020019150600581901b3603821315611c5e57600080fd5b60008161210157612101611dfe565b506000190190565b8481526001600160401b038416602082015260006006841061213b57634e487b7160e01b600052602160045260246000fd5b836040830152608060608301526121556080830184611d21565b9695505050505050565b60008261216e5761216e61207f565b500490565b601f821115610a5e57600081815260208120601f850160051c8101602086101561219a5750805b601f850160051c820191505b818110156121b9578281556001016121a6565b505050505050565b8135601e198336030181126121d557600080fd5b820180356001600160401b038111156121ed57600080fd5b6020813603818401131561220057600080fd5b6122148261220e865461201f565b86612173565b6000601f83116001811461224a576000841561223257508482018301355b600019600386901b1c1916600185901b1786556122a7565b600086815260209020601f19851690835b8281101561227c57878501860135825593850193600190910190850161225b565b508582101561229b5760001960f88760031b161c198585890101351681555b505060018460011b0186555b50505050505050565b805160208083015191908110156120535760001960209190910360031b1b16919050565b6000600160ff1b82016122e9576122e9611dfe565b506000039056fea2646970667358221220d6413968eab1baf51a483d68ee8942bdbe162385c410313b7f3f3744a13051bd64736f6c63430008140033","linkReferences":{}},"methodIdentifiers":{"LEAF_SIZE()":"c0e15949","MAX_ROOT_SIZE()":"16e2bcd5","addRoots(uint256,((bytes),uint256)[])":"32a87252","claimProofSetOwnership(uint256)":"ee3dac65","createProofSet(address)":"96984338","deleteProofSet(uint256)":"d6dadec8","findRootIds(uint256,uint256[])":"0528a55b","getChallengeFinality()":"f83758fe","getNextChallengeEpoch(uint256)":"6ba4608f","getNextProofSetId()":"8ea417e5","getNextRootId(uint256)":"d49245c1","getProofSetLeafCount(uint256)":"3f84135f","getProofSetOwner(uint256)":"4726075b","getRootCid(uint256,uint256)":"3b7ae913","getRootLeafCount(uint256,uint256)":"9153e64b","proofSetLive(uint256)":"f5cac1ba","proposeProofSetOwner(uint256,address)":"6cb55c16","provePossession(uint256,(bytes32,bytes32[])[])":"f58f952b","removeRoots(uint256,uint256[])":"316bf10e","rootLive(uint256,uint256)":"47331050"},"id":3}