{"abi":[{"type":"constructor","inputs":[{"name":"_challengeFinality","type":"uint256","internalType":"uint256"}],"stateMutability":"nonpayable"},{"type":"function","name":"LEAF_SIZE","inputs":[],"outputs":[{"name":"","type":"uint256","internalType":"uint256"}],"stateMutability":"view"},{"type":"function","name":"MAX_ROOT_SIZE","inputs":[],"outputs":[{"name":"","type":"uint256","internalType":"uint256"}],"stateMutability":"view"},{"type":"function","name":"addRoots","inputs":[{"name":"setId","type":"uint256","internalType":"uint256"},{"name":"rootData","type":"tuple[]","internalType":"struct PDPService.RootData[]","components":[{"name":"root","type":"tuple","internalType":"struct Cids.Cid","components":[{"name":"data","type":"bytes","internalType":"bytes"}]},{"name":"rawSize","type":"uint256","internalType":"uint256"}]}],"outputs":[{"name":"","type":"uint256","internalType":"uint256"}],"stateMutability":"nonpayable"},{"type":"function","name":"claimProofSetOwnership","inputs":[{"name":"setId","type":"uint256","internalType":"uint256"}],"outputs":[],"stateMutability":"nonpayable"},{"type":"function","name":"createProofSet","inputs":[{"name":"recordKeeper","type":"address","internalType":"address"}],"outputs":[{"name":"","type":"uint256","internalType":"uint256"}],"stateMutability":"nonpayable"},{"type":"function","name":"deleteProofSet","inputs":[{"name":"setId","type":"uint256","internalType":"uint256"}],"outputs":[],"stateMutability":"nonpayable"},{"type":"function","name":"findRootIds","inputs":[{"name":"setId","type":"uint256","internalType":"uint256"},{"name":"leafIndexs","type":"uint256[]","internalType":"uint256[]"}],"outputs":[{"name":"","type":"tuple[]","internalType":"struct PDPService.RootIdAndOffset[]","components":[{"name":"rootId","type":"uint256","internalType":"uint256"},{"name":"offset","type":"uint256","internalType":"uint256"}]}],"stateMutability":"view"},{"type":"function","name":"getChallengeFinality","inputs":[],"outputs":[{"name":"","type":"uint256","internalType":"uint256"}],"stateMutability":"view"},{"type":"function","name":"getNextChallengeEpoch","inputs":[{"name":"setId","type":"uint256","internalType":"uint256"}],"outputs":[{"name":"","type":"uint256","internalType":"uint256"}],"stateMutability":"view"},{"type":"function","name":"getNextProofSetId","inputs":[],"outputs":[{"name":"","type":"uint64","internalType":"uint64"}],"stateMutability":"view"},{"type":"function","name":"getNextRootId","inputs":[{"name":"setId","type":"uint256","internalType":"uint256"}],"outputs":[{"name":"","type":"uint256","internalType":"uint256"}],"stateMutability":"view"},{"type":"function","name":"getProofSetLeafCount","inputs":[{"name":"setId","type":"uint256","internalType":"uint256"}],"outputs":[{"name":"","type":"uint256","internalType":"uint256"}],"stateMutability":"view"},{"type":"function","name":"getProofSetOwner","inputs":[{"name":"setId","type":"uint256","internalType":"uint256"}],"outputs":[{"name":"","type":"address","internalType":"address"},{"name":"","type":"address","internalType":"address"}],"stateMutability":"view"},{"type":"function","name":"getRootCid","inputs":[{"name":"setId","type":"uint256","internalType":"uint256"},{"name":"rootId","type":"uint256","internalType":"uint256"}],"outputs":[{"name":"","type":"tuple","internalType":"struct Cids.Cid","components":[{"name":"data","type":"bytes","internalType":"bytes"}]}],"stateMutability":"view"},{"type":"function","name":"getRootLeafCount","inputs":[{"name":"setId","type":"uint256","internalType":"uint256"},{"name":"rootId","type":"uint256","internalType":"uint256"}],"outputs":[{"name":"","type":"uint256","internalType":"uint256"}],"stateMutability":"view"},{"type":"function","name":"proofSetLive","inputs":[{"name":"setId","type":"uint256","internalType":"uint256"}],"outputs":[{"name":"","type":"bool","internalType":"bool"}],"stateMutability":"view"},{"type":"function","name":"proposeProofSetOwner","inputs":[{"name":"setId","type":"uint256","internalType":"uint256"},{"name":"newOwner","type":"address","internalType":"address"}],"outputs":[],"stateMutability":"nonpayable"},{"type":"function","name":"provePossession","inputs":[{"name":"setId","type":"uint256","internalType":"uint256"},{"name":"proofs","type":"tuple[]","internalType":"struct PDPService.Proof[]","components":[{"name":"leaf","type":"bytes32","internalType":"bytes32"},{"name":"proof","type":"bytes32[]","internalType":"bytes32[]"}]}],"outputs":[],"stateMutability":"nonpayable"},{"type":"function","name":"removeRoots","inputs":[{"name":"setId","type":"uint256","internalType":"uint256"},{"name":"rootIds","type":"uint256[]","internalType":"uint256[]"}],"outputs":[{"name":"","type":"uint256","internalType":"uint256"}],"stateMutability":"nonpayable"},{"type":"function","name":"rootLive","inputs":[{"name":"setId","type":"uint256","internalType":"uint256"},{"name":"rootId","type":"uint256","internalType":"uint256"}],"outputs":[{"name":"","type":"bool","internalType":"bool"}],"stateMutability":"view"},{"type":"event","name":"ProofSetCreated","inputs":[{"name":"setId","type":"uint256","indexed":true,"internalType":"uint256"}],"anonymous":false},{"type":"event","name":"RootsAdded","inputs":[{"name":"firstAdded","type":"uint256","indexed":true,"internalType":"uint256"}],"anonymous":false},{"type":"event","name":"RootsRemoved","inputs":[{"name":"totalDelta","type":"uint256","indexed":true,"internalType":"uint256"}],"anonymous":false},{"type":"error","name":"IndexedError","inputs":[{"name":"idx","type":"uint256","internalType":"uint256"},{"name":"msg","type":"string","internalType":"string"}]}],"bytecode":{"object":"0x608060405234801561001057600080fd5b5060405161242338038061242383398101604081905261002f91610037565b600055610050565b60006020828403121561004957600080fd5b5051919050565b6123c48061005f6000396000f3fe608060405234801561001057600080fd5b506004361061012c5760003560e01c80638ea417e5116100ad578063d6dadec811610071578063d6dadec8146102a9578063ee3dac65146102bc578063f58f952b146102cf578063f5cac1ba146102e2578063f83758fe146102f557600080fd5b80638ea417e51461024d5780639153e64b14610268578063969843381461027b578063c0e159491461028e578063d49245c11461029657600080fd5b80633f84135f116100f45780633f84135f146101bc5780634726075b146101cf57806347331050146102025780636ba4608f146102255780636cb55c161461023857600080fd5b80630528a55b1461013157806316e2bcd51461015a578063316bf10e1461017657806332a87252146101895780633b7ae9131461019c575b600080fd5b61014461013f366004611d03565b6102fd565b6040516101519190611d4e565b60405180910390f35b610168660400000000000081565b604051908152602001610151565b610168610184366004611d03565b6103f3565b610168610197366004611d03565b610599565b6101af6101aa366004611d9d565b6107b2565b6040516101519190611e05565b6101686101ca366004611e20565b6108a5565b6101e26101dd366004611e20565b6108df565b604080516001600160a01b03938416815292909116602083015201610151565b610215610210366004611d9d565b610935565b6040519015158152602001610151565b610168610233366004611e20565b610980565b61024b610246366004611e55565b6109ba565b005b6001546040516001600160401b039091168152602001610151565b610168610276366004611d9d565b610ac3565b610168610289366004611e81565b610b08565b610168602081565b6101686102a4366004611e20565b610bf4565b61024b6102b7366004611e20565b610c2e565b61024b6102ca366004611e20565b610d68565b61024b6102dd366004611d03565b610e3c565b6102156102f0366004611e20565b611126565b600054610168565b600083815260056020526040812054606091906103199061115c565b61032590610100611eb2565b90506000836001600160401b0381111561034157610341611ec5565b60405190808252806020026020018201604052801561038657816020015b604080518082019091526000808252602082015281526020019060019003908161035f5790505b50905060005b848110156103e7576103b7878787848181106103aa576103aa611edb565b9050602002013585611254565b8282815181106103c9576103c9611edb565b602002602001018190525080806103df90611ef1565b91505061038c565b509150505b9392505050565b6000838152600960205260408120546001600160a01b0316331461045e5760405162461bcd60e51b815260206004820152601f60248201527f4f6e6c7920746865206f776e65722063616e2072656d6f766520726f6f74730060448201526064015b60405180910390fd5b61046784611126565b6104835760405162461bcd60e51b815260040161045590611f0a565b6000805b838110156104cf576104b1868686848181106104a5576104a5611edb565b9050602002013561143c565b6104bb9083611f36565b9150806104c781611ef1565b915050610487565b50600085815260066020526040812080548392906104ee908490611eb2565b90915550506000858152600660205260408120549003610518576000858152600760205260408120555b600081858560405160200161052f93929190611f49565b60408051601f198184030181529181526000888152600860205220549091506105659087906001600160a01b03166003846114a4565b60405182907fc104a368a3d37b85a4936902c8de9d9efc075994124c76c0173e370bc244cda190600090a250949350505050565b60006105a484611126565b6105c05760405162461bcd60e51b815260040161045590611f0a565b8161060d5760405162461bcd60e51b815260206004820152601a60248201527f4d75737420616464206174206c65617374206f6e6520726f6f740000000000006044820152606401610455565b6000848152600960205260409020546001600160a01b031633146106735760405162461bcd60e51b815260206004820152601c60248201527f4f6e6c7920746865206f776e65722063616e2061646420726f6f7473000000006044820152606401610455565b60008481526007602090815260408083205460059092528220549015915b8481101561070c576106f987828888858181106106b0576106b0611edb565b90506020028101906106c29190611f8a565b6106cc9080611faa565b8989868181106106de576106de611edb565b90506020028101906106f09190611f8a565b6020013561155a565b508061070481611ef1565b915050610691565b508115610730576000546107209043611f36565b6000878152600760205260409020555b600081868660405160200161074793929190611fc0565b60408051601f1981840301815291815260008981526008602052205490915061077d9088906001600160a01b03166002846114a4565b60405182907fde16f8a35fc44238b21a493b7267f7a5064f2bc1b3a1af51deeb4b5a47281d4790600090a25095945050505050565b6040805160208101909152606081526107ca83611126565b6107e65760405162461bcd60e51b815260040161045590611f0a565b6000838152600260209081526040808320858452825291829020825191820190925281549091908290829061081a906120bd565b80601f0160208091040260200160405190810160405280929190818152602001828054610846906120bd565b80156108935780601f1061086857610100808354040283529160200191610893565b820191906000526020600020905b81548152906001019060200180831161087657829003601f168201915b50505050508152505090505b92915050565b60006108b082611126565b6108cc5760405162461bcd60e51b815260040161045590611f0a565b5060009081526006602052604090205490565b6000806108eb83611126565b6109075760405162461bcd60e51b815260040161045590611f0a565b5050600090815260096020908152604080832054600a909252909120546001600160a01b0391821692911690565b600061094083611126565b8015610959575060008381526005602052604090205482105b80156103ec5750506000918252600360209081526040808420928452919052902054151590565b600061098b82611126565b6109a75760405162461bcd60e51b815260040161045590611f0a565b5060009081526007602052604090205490565b6109c382611126565b6109df5760405162461bcd60e51b815260040161045590611f0a565b6000828152600960205260409020546001600160a01b0316338114610a5d5760405162461bcd60e51b815260206004820152602e60248201527f4f6e6c79207468652063757272656e74206f776e65722063616e2070726f706f60448201526d39b29030903732bb9037bbb732b960911b6064820152608401610455565b816001600160a01b0316816001600160a01b031603610a965750506000908152600a6020526040902080546001600160a01b0319169055565b6000838152600a6020526040902080546001600160a01b0319166001600160a01b0384161790555b505050565b6000610ace83611126565b610aea5760405162461bcd60e51b815260040161045590611f0a565b50600091825260036020908152604080842092845291905290205490565b6001805460009182916001600160401b03169082610b25836120f7565b82546101009290920a6001600160401b0381810219909316918316021790915516600081815260066020908152604080832083905560078252808320839055600982528083208054336001600160a01b031991821681179092556008845282852080549091166001600160a01b038a161790558151928301529293509091016040516020818303038152906040529050610bc282856001846114a4565b60405182907f5979d495e336598dba8459e44f8eb2a1c957ce30fcc10cabea4bb0ffe969df6a90600090a25092915050565b6000610bff82611126565b610c1b5760405162461bcd60e51b815260040161045590611f0a565b5060009081526005602052604090205490565b6001546001600160401b03168110610c885760405162461bcd60e51b815260206004820152601a60248201527f70726f6f6620736574206964206f7574206f6620626f756e64730000000000006044820152606401610455565b6000818152600960205260409020546001600160a01b03163314610cfa5760405162461bcd60e51b8152602060048201526024808201527f4f6e6c7920746865206f776e65722063616e2064656c6574652070726f6f66206044820152637365747360e01b6064820152608401610455565b60008181526006602090815260408083208054908490556009835281842080546001600160a01b031916905560078352818420849055815180840182905282518082038501815290830183528585526008909352922054610abe9084906001600160a01b03166005846114a4565b610d7181611126565b610d8d5760405162461bcd60e51b815260040161045590611f0a565b6000818152600a60205260409020546001600160a01b03163314610e075760405162461bcd60e51b815260206004820152602b60248201527f4f6e6c79207468652070726f706f736564206f776e65722063616e20636c616960448201526a06d206f776e6572736869760ac1b6064820152608401610455565b600090815260096020908152604080832080546001600160a01b03199081163317909155600a90925290912080549091169055565b60008381526007602052604090205443811115610e8d5760405162461bcd60e51b815260206004820152600f60248201526e383932b6b0ba3ab93290383937b7b360891b6044820152606401610455565b81610ec85760405162461bcd60e51b815260206004820152600b60248201526a32b6b83a3c90383937b7b360a91b6044820152606401610455565b806000610ed4866108a5565b60008781526005602052604081205491925090610ef09061115c565b610efc90610100611eb2565b905060005b6001600160401b0381168611156110ab5760408051602081018690529081018990526001600160c01b031960c083901b1660608201526000906068016040516020818303038152906040529050600084828051906020012060001c610f669190612133565b90506000610f758b8387611254565b90506000610f8f610f8a8d84600001516107b2565b611723565b9050600061104d8c8c886001600160401b0316818110610fb157610fb1611edb565b9050602002810190610fc39190611f8a565b610fd1906020810190612147565b80806020026020016040519081016040528093929190818152602001838360200280828437600081840152601f19601f82011690508083019250505050505050838e8e8a6001600160401b031681811061102d5761102d611edb565b905060200281019061103f9190611f8a565b60000135866020015161181c565b9050806110935760405162461bcd60e51b815260206004820152601460248201527370726f6f6620646964206e6f742076657269667960601b6044820152606401610455565b505050505080806110a3906120f7565b915050610f01565b506000546110b99043611f36565b60008881526007602090815260408083209390935560068152828220548351918201529182018590529060600160408051601f1981840301815291815260008a81526008602052205490915061111c9089906001600160a01b03166004846114a4565b5050505050505050565b6001546000906001600160401b03168210801561089f5750506000908152600960205260409020546001600160a01b0316151590565b6000610100608083901c801561117d57611177608083611eb2565b91508093505b50604083901c801561119a57611194604083611eb2565b91508093505b50602083901c80156111b7576111b1602083611eb2565b91508093505b50601083901c80156111d4576111ce601083611eb2565b91508093505b50600883901c80156111f1576111eb600883611eb2565b91508093505b50600483901c801561120e57611208600483611eb2565b91508093505b50600283901c801561122b57611225600283611eb2565b91508093505b50600183901c801561124a57611242600283611eb2565b949350505050565b6112428483611eb2565b604080518082019091526000808252602082015260008481526006602052604090205483106112c55760405162461bcd60e51b815260206004820152601860248201527f4c65616620696e646578206f7574206f6620626f756e647300000000000000006044820152606401610455565b60006112d4600180851b611eb2565b9050600080845b80156113b057600088815260056020526040902054841061131657611301600182611eb2565b61130f906001901b85611eb2565b935061139e565b600088815260046020908152604080832087845290915290205461133a9084611f36565b91508682116113825760008881526004602090815260408083208784529091529020546113679084611f36565b9250611374600182611eb2565b61130f906001901b85611f36565b61138d600182611eb2565b61139b906001901b85611eb2565b93505b806113a881612190565b9150506112db565b5060008781526004602090815260408083208684529091529020546113d59083611f36565b90508581116114125760405180604001604052808460016113f69190611f36565b81526020016114058389611eb2565b81525093505050506103ec565b6040518060400160405280848152602001838861142f9190611eb2565b9052979650505050505050565b6000828152600360209081526040808320848452909152812054611461848483611834565b600084815260036020908152604080832086845282528083208390558683526002825280832086845290915281209061149a8282611c62565b5090949350505050565b6001600160a01b0383166114fa5760405162461bcd60e51b815260206004820152601960248201527f5265636f7264206b6565706572206d75737420626520736574000000000000006044820152606401610455565b6040516307e4f60d60e11b81526001600160a01b03841690630fc9ec1a9061152c9087904390879087906004016121a7565b600060405180830381600087803b15801561154657600080fd5b505af115801561111c573d6000803e3d6000fd5b6000611567602083612133565b156115be578360405163c7b67cf360e01b8152600401610455918152604060208201819052601d908201527f53697a65206d7573742062652061206d756c7469706c65206f66203332000000606082015260800190565b81600003611618578360405163c7b67cf360e01b8152600401610455918152604060208201819052601b908201527f53697a65206d7573742062652067726561746572207468616e20300000000000606082015260800190565b6604000000000000821115611678578360405163c7b67cf360e01b815260040161045591815260406020808301829052908201527f526f6f742073697a65206d757374206265206c657373207468616e20325e3530606082015260800190565b60006116856020846121fd565b60008781526005602052604081208054929350909190826116a583611ef1565b9190505590506116b68783836118df565b6000878152600260209081526040808320848452909152902085906116db828261225f565b505060008781526003602090815260408083208484528252808320859055898352600690915281208054849290611713908490611f36565b9091555090979650505050505050565b6000602082600001515110156117735760405162461bcd60e51b815260206004820152601560248201527410da590819185d18481a5cc81d1bdbc81cda1bdc9d605a1b6044820152606401610455565b60408051602080825281830190925260009160208201818036833701905050905060005b6020811015611812578351805182906117b290602090611eb2565b6117bc9190611f36565b815181106117cc576117cc611edb565b602001015160f81c60f81b8282815181106117e9576117e9611edb565b60200101906001600160f81b031916908160001a9053508061180a81611ef1565b915050611797565b506103ec8161234e565b60008361182a86858561196a565b1495945050505050565b60008381526005602052604081205461184c9061115c565b61185890610100611eb2565b90506000611865846119f2565b90505b818111158015611885575060008581526005602052604090205484105b156118d8576000858152600460209081526040808320878452909152812080548592906118b3908490611eb2565b909155506118c690506001821b85611f36565b93506118d1846119f2565b9050611868565b5050505050565b8060006118eb826119f2565b90508360005b828110156119455760006119086001831b86611eb2565b600089815260046020908152604080832084845290915290205490915061192f9084611f36565b925050808061193d90611ef1565b9150506118f1565b5060009586526004602090815260408088209588529490529290942091909155505050565b600082815b85518110156119e957600086828151811061198c5761198c611edb565b602002602001015190506002856119a39190612133565b6000036119bb576119b48382611a07565b92506119c8565b6119c58184611a07565b92505b6119d36002866121fd565b94505080806119e190611ef1565b91505061196f565b50949350505050565b600061089f611a02836001611f36565b611a13565b60006103ec8383611c35565b60006001600160ff1b03821115611a775760405162461bcd60e51b815260206004820152602260248201527f496e7075742065786365656473206d6178696d756d20696e743235362076616c604482015261756560f01b6064820152608401610455565b6101006000611a8584612372565b841690508015611a9d5781611a9981612190565b9250505b6fffffffffffffffffffffffffffffffff811615611ac357611ac0608083611eb2565b91505b77ffffffffffffffff0000000000000000ffffffffffffffff811615611af157611aee604083611eb2565b91505b7bffffffff00000000ffffffff00000000ffffffff00000000ffffffff811615611b2357611b20602083611eb2565b91505b7dffff0000ffff0000ffff0000ffff0000ffff0000ffff0000ffff0000ffff811615611b5757611b54601083611eb2565b91505b7eff00ff00ff00ff00ff00ff00ff00ff00ff00ff00ff00ff00ff00ff00ff00ff811615611b8c57611b89600883611eb2565b91505b7f0f0f0f0f0f0f0f0f0f0f0f0f0f0f0f0f0f0f0f0f0f0f0f0f0f0f0f0f0f0f0f0f811615611bc257611bbf600483611eb2565b91505b7f3333333333333333333333333333333333333333333333333333333333333333811615611bf857611bf5600283611eb2565b91505b7f5555555555555555555555555555555555555555555555555555555555555555811615611c2e57611c2b600183611eb2565b91505b5092915050565b60008260005281602052602060006040600060025afa611c5457600080fd5b505060005160c01916919050565b508054611c6e906120bd565b6000825580601f10611c7e575050565b601f016020900490600052602060002090810190611c9c9190611c9f565b50565b5b80821115611cb45760008155600101611ca0565b5090565b60008083601f840112611cca57600080fd5b5081356001600160401b03811115611ce157600080fd5b6020830191508360208260051b8501011115611cfc57600080fd5b9250929050565b600080600060408486031215611d1857600080fd5b8335925060208401356001600160401b03811115611d3557600080fd5b611d4186828701611cb8565b9497909650939450505050565b602080825282518282018190526000919060409081850190868401855b82811015611d9057815180518552860151868501529284019290850190600101611d6b565b5091979650505050505050565b60008060408385031215611db057600080fd5b50508035926020909101359150565b6000815180845260005b81811015611de557602081850181015186830182015201611dc9565b506000602082860101526020601f19601f83011685010191505092915050565b60208152600082516020808401526112426040840182611dbf565b600060208284031215611e3257600080fd5b5035919050565b80356001600160a01b0381168114611e5057600080fd5b919050565b60008060408385031215611e6857600080fd5b82359150611e7860208401611e39565b90509250929050565b600060208284031215611e9357600080fd5b6103ec82611e39565b634e487b7160e01b600052601160045260246000fd5b8181038181111561089f5761089f611e9c565b634e487b7160e01b600052604160045260246000fd5b634e487b7160e01b600052603260045260246000fd5b600060018201611f0357611f03611e9c565b5060010190565b60208082526012908201527150726f6f6620736574206e6f74206c69766560701b604082015260600190565b8082018082111561089f5761089f611e9c565b838152604060208201819052810182905260006001600160fb1b03831115611f7057600080fd5b8260051b8085606085013791909101606001949350505050565b60008235603e19833603018112611fa057600080fd5b9190910192915050565b60008235601e19833603018112611fa057600080fd5b600060408083018684526020828186015281868352606092508286019050828760051b8701018860005b898110156120ad57888303605f190184528135368c9003603e1901811261201057600080fd5b8b018035601e19368390038101821261202857600080fd5b828201915089865281358183360301811261204257600080fd5b9091018781019150356001600160401b0381111561205f57600080fd5b80360382131561206e57600080fd5b878a870152808987015260808183828901376000878301820152928801358887015295870195601f01601f191690940101925090840190600101611fea565b50909a9950505050505050505050565b600181811c908216806120d157607f821691505b6020821081036120f157634e487b7160e01b600052602260045260246000fd5b50919050565b60006001600160401b0380831681810361211357612113611e9c565b6001019392505050565b634e487b7160e01b600052601260045260246000fd5b6000826121425761214261211d565b500690565b6000808335601e1984360301811261215e57600080fd5b8301803591506001600160401b0382111561217857600080fd5b6020019150600581901b3603821315611cfc57600080fd5b60008161219f5761219f611e9c565b506000190190565b8481526001600160401b03841660208201526000600684106121d957634e487b7160e01b600052602160045260246000fd5b836040830152608060608301526121f36080830184611dbf565b9695505050505050565b60008261220c5761220c61211d565b500490565b601f821115610abe57600081815260208120601f850160051c810160208610156122385750805b601f850160051c820191505b8181101561225757828155600101612244565b505050505050565b8135601e1983360301811261227357600080fd5b820180356001600160401b0381111561228b57600080fd5b6020813603818401131561229e57600080fd5b6122b2826122ac86546120bd565b86612211565b6000601f8311600181146122e857600084156122d057508482018301355b600019600386901b1c1916600185901b178655612345565b600086815260209020601f19851690835b8281101561231a5787850186013582559385019360019091019085016122f9565b50858210156123395760001960f88760031b161c198585890101351681555b505060018460011b0186555b50505050505050565b805160208083015191908110156120f15760001960209190910360031b1b16919050565b6000600160ff1b820161238757612387611e9c565b506000039056fea26469706673582212209b082e7a7a9796c821020a29cd9820597243329d9d3e8b8da58e411ed465d17b64736f6c63430008140033","linkReferences":{}},"methodIdentifiers":{"LEAF_SIZE()":"c0e15949","MAX_ROOT_SIZE()":"16e2bcd5","addRoots(uint256,((bytes),uint256)[])":"32a87252","claimProofSetOwnership(uint256)":"ee3dac65","createProofSet(address)":"96984338","deleteProofSet(uint256)":"d6dadec8","findRootIds(uint256,uint256[])":"0528a55b","getChallengeFinality()":"f83758fe","getNextChallengeEpoch(uint256)":"6ba4608f","getNextProofSetId()":"8ea417e5","getNextRootId(uint256)":"d49245c1","getProofSetLeafCount(uint256)":"3f84135f","getProofSetOwner(uint256)":"4726075b","getRootCid(uint256,uint256)":"3b7ae913","getRootLeafCount(uint256,uint256)":"9153e64b","proofSetLive(uint256)":"f5cac1ba","proposeProofSetOwner(uint256,address)":"6cb55c16","provePossession(uint256,(bytes32,bytes32[])[])":"f58f952b","removeRoots(uint256,uint256[])":"316bf10e","rootLive(uint256,uint256)":"47331050"},"id":3}